{
  "contractName": "VotingEvent",
  "abi": [
    {
      "inputs": [
        {
          "internalType": "string[]",
          "name": "_candidates",
          "type": "string[]"
        },
        {
          "internalType": "address",
          "name": "_token",
          "type": "address"
        },
        {
          "internalType": "uint256",
          "name": "_prize",
          "type": "uint256"
        },
        {
          "internalType": "uint256",
          "name": "_numberVoters",
          "type": "uint256"
        },
        {
          "internalType": "uint256",
          "name": "_endTime",
          "type": "uint256"
        },
        {
          "internalType": "bool",
          "name": "_allowChange",
          "type": "bool"
        }
      ],
      "stateMutability": "payable",
      "type": "constructor"
    },
    {
      "anonymous": false,
      "inputs": [
        {
          "indexed": false,
          "internalType": "address",
          "name": "targetAddress",
          "type": "address"
        },
        {
          "indexed": false,
          "internalType": "string",
          "name": "functionName",
          "type": "string"
        },
        {
          "indexed": false,
          "internalType": "bool",
          "name": "success",
          "type": "bool"
        },
        {
          "indexed": false,
          "internalType": "bytes",
          "name": "result",
          "type": "bytes"
        }
      ],
      "name": "ExternalCall",
      "type": "event"
    },
    {
      "anonymous": false,
      "inputs": [
        {
          "indexed": false,
          "internalType": "uint256",
          "name": "nonce",
          "type": "uint256"
        },
        {
          "indexed": false,
          "internalType": "uint256",
          "name": "choice",
          "type": "uint256"
        }
      ],
      "name": "Vote",
      "type": "event"
    },
    {
      "inputs": [
        {
          "internalType": "uint256",
          "name": "",
          "type": "uint256"
        }
      ],
      "name": "candidates",
      "outputs": [
        {
          "internalType": "string",
          "name": "",
          "type": "string"
        }
      ],
      "stateMutability": "view",
      "type": "function"
    },
    {
      "inputs": [],
      "name": "prize",
      "outputs": [
        {
          "internalType": "uint256",
          "name": "",
          "type": "uint256"
        }
      ],
      "stateMutability": "view",
      "type": "function"
    },
    {
      "inputs": [
        {
          "internalType": "uint256",
          "name": "",
          "type": "uint256"
        }
      ],
      "name": "voteCount",
      "outputs": [
        {
          "internalType": "uint256",
          "name": "",
          "type": "uint256"
        }
      ],
      "stateMutability": "view",
      "type": "function"
    },
    {
      "inputs": [
        {
          "internalType": "uint256",
          "name": "choice",
          "type": "uint256"
        },
        {
          "internalType": "uint256",
          "name": "nonce",
          "type": "uint256"
        },
        {
          "internalType": "bytes",
          "name": "signautre",
          "type": "bytes"
        }
      ],
      "name": "vote",
      "outputs": [],
      "stateMutability": "nonpayable",
      "type": "function"
    },
    {
      "inputs": [],
      "name": "end",
      "outputs": [],
      "stateMutability": "nonpayable",
      "type": "function"
    },
    {
      "inputs": [],
      "name": "withdraw",
      "outputs": [],
      "stateMutability": "nonpayable",
      "type": "function"
    }
  ],
  "bytecode": "0x60806040526040516200213e3803806200213e833981810160405281019062000029919062000540565b336000806101000a81548173ffffffffffffffffffffffffffffffffffffffff021916908373ffffffffffffffffffffffffffffffffffffffff16021790555085600290805190602001906200008192919062000247565b5084600660006101000a81548173ffffffffffffffffffffffffffffffffffffffff021916908373ffffffffffffffffffffffffffffffffffffffff160217905550600073ffffffffffffffffffffffffffffffffffffffff168573ffffffffffffffffffffffffffffffffffffffff1614156200011957828462000107919062000708565b34146200011357600080fd5b62000213565b84600560006101000a81548173ffffffffffffffffffffffffffffffffffffffff021916908373ffffffffffffffffffffffffffffffffffffffff160217905550600560009054906101000a900473ffffffffffffffffffffffffffffffffffffffff1673ffffffffffffffffffffffffffffffffffffffff166323b872dd3330876040518463ffffffff1660e01b8152600401620001bb939291906200063d565b602060405180830381600087803b158015620001d657600080fd5b505af1158015620001eb573d6000803e3d6000fd5b505050506040513d601f19601f82011682018060405250810190620002119190620005ef565b505b8360018190555081600b8190555080600c60006101000a81548160ff02191690831515021790555050505050505062000941565b8280548282559060005260206000209081019282156200029b579160200282015b828111156200029a57825182908051906020019062000289929190620002ae565b509160200191906001019062000268565b5b509050620002aa91906200033f565b5090565b828054620002bc90620007e9565b90600052602060002090601f016020900481019282620002e057600085556200032c565b82601f10620002fb57805160ff19168380011785556200032c565b828001600101855582156200032c579182015b828111156200032b5782518255916020019190600101906200030e565b5b5090506200033b919062000367565b5090565b5b8082111562000363576000818162000359919062000386565b5060010162000340565b5090565b5b808211156200038257600081600090555060010162000368565b5090565b5080546200039490620007e9565b6000825580601f10620003a85750620003c9565b601f016020900490600052602060002090810190620003c8919062000367565b5b50565b6000620003e3620003dd84620006a3565b6200067a565b905080838252602082019050828560208602820111156200040357600080fd5b60005b858110156200045257815167ffffffffffffffff8111156200042757600080fd5b808601620004368982620004fc565b8552602085019450602084019350505060018101905062000406565b5050509392505050565b6000620004736200046d84620006d2565b6200067a565b9050828152602081018484840111156200048c57600080fd5b62000499848285620007b3565b509392505050565b600081519050620004b281620008f3565b92915050565b600082601f830112620004ca57600080fd5b8151620004dc848260208601620003cc565b91505092915050565b600081519050620004f6816200090d565b92915050565b600082601f8301126200050e57600080fd5b8151620005208482602086016200045c565b91505092915050565b6000815190506200053a8162000927565b92915050565b60008060008060008060c087890312156200055a57600080fd5b600087015167ffffffffffffffff8111156200057557600080fd5b6200058389828a01620004b8565b96505060206200059689828a01620004a1565b9550506040620005a989828a0162000529565b9450506060620005bc89828a0162000529565b9350506080620005cf89828a0162000529565b92505060a0620005e289828a01620004e5565b9150509295509295509295565b6000602082840312156200060257600080fd5b60006200061284828501620004e5565b91505092915050565b620006268162000769565b82525050565b6200063781620007a9565b82525050565b60006060820190506200065460008301866200061b565b6200066360208301856200061b565b6200067260408301846200062c565b949350505050565b60006200068662000699565b90506200069482826200081f565b919050565b6000604051905090565b600067ffffffffffffffff821115620006c157620006c0620008b3565b5b602082029050602081019050919050565b600067ffffffffffffffff821115620006f057620006ef620008b3565b5b620006fb82620008e2565b9050602081019050919050565b60006200071582620007a9565b91506200072283620007a9565b9250817fffffffffffffffffffffffffffffffffffffffffffffffffffffffffffffffff04831182151516156200075e576200075d62000855565b5b828202905092915050565b6000620007768262000789565b9050919050565b60008115159050919050565b600073ffffffffffffffffffffffffffffffffffffffff82169050919050565b6000819050919050565b60005b83811015620007d3578082015181840152602081019050620007b6565b83811115620007e3576000848401525b50505050565b600060028204905060018216806200080257607f821691505b6020821081141562000819576200081862000884565b5b50919050565b6200082a82620008e2565b810181811067ffffffffffffffff821117156200084c576200084b620008b3565b5b80604052505050565b7f4e487b7100000000000000000000000000000000000000000000000000000000600052601160045260246000fd5b7f4e487b7100000000000000000000000000000000000000000000000000000000600052602260045260246000fd5b7f4e487b7100000000000000000000000000000000000000000000000000000000600052604160045260246000fd5b6000601f19601f8301169050919050565b620008fe8162000769565b81146200090a57600080fd5b50565b62000918816200077d565b81146200092457600080fd5b50565b6200093281620007a9565b81146200093e57600080fd5b50565b6117ed80620009516000396000f3fe608060405234801561001057600080fd5b50600436106100625760003560e01c80633477ee2e146100675780633ccfd60b146100975780634fc8a20d146100a1578063a867b846146100d1578063e3ac5d26146100ed578063efbe1c1c1461010b575b600080fd5b610081600480360381019061007c9190610d1c565b610115565b60405161008e9190611197565b60405180910390f35b61009f6101c1565b005b6100bb60048036038101906100b69190610d1c565b610325565b6040516100c89190611299565b60405180910390f35b6100eb60048036038101906100e69190610d6e565b61033d565b005b6100f56107a3565b6040516101029190611299565b60405180910390f35b6101136107a9565b005b6002818154811061012557600080fd5b906000526020600020016000915090508054610140906114ac565b80601f016020809104026020016040519081016040528092919081815260200182805461016c906114ac565b80156101b95780601f1061018e576101008083540402835291602001916101b9565b820191906000526020600020905b81548152906001019060200180831161019c57829003601f168201915b505050505081565b600073ffffffffffffffffffffffffffffffffffffffff16600660009054906101000a900473ffffffffffffffffffffffffffffffffffffffff1673ffffffffffffffffffffffffffffffffffffffff1614610252576040517f08c379a000000000000000000000000000000000000000000000000000000000815260040161024990611219565b60405180910390fd5b6000600a60003373ffffffffffffffffffffffffffffffffffffffff1673ffffffffffffffffffffffffffffffffffffffff1681526020019081526020016000205490506000600a60003373ffffffffffffffffffffffffffffffffffffffff1673ffffffffffffffffffffffffffffffffffffffff168152602001908152602001600020819055503373ffffffffffffffffffffffffffffffffffffffff166108fc829081150290604051600060405180830381858888f19350505050158015610321573d6000803e3d6000fd5b5050565b60036020528060005260406000206000915090505481565b600b544210610381576040517f08c379a0000000000000000000000000000000000000000000000000000000008152600401610378906111b9565b60405180910390fd5b60006103b8338460085460405160200161039d93929190611043565b60405160208183030381529060405280519060200120610b5f565b905060006103c68284610b8f565b905060008054906101000a900473ffffffffffffffffffffffffffffffffffffffff1673ffffffffffffffffffffffffffffffffffffffff168173ffffffffffffffffffffffffffffffffffffffff1614610456576040517f08c379a000000000000000000000000000000000000000000000000000000000815260040161044d906111f9565b60405180910390fd5b600c60009054906101000a900460ff16801561048f57506009600085815260200190815260200160002060009054906101000a900460ff165b15610519576001600360006004600088815260200190815260200160002054815260200190815260200160002060008282546104cb91906113d7565b9250508190555060006009600086815260200190815260200160002060006101000a81548160ff02191690831515021790555060016007600082825461051191906113d7565b925050819055505b6009600085815260200190815260200160002060009054906101000a900460ff161561057a576040517f08c379a000000000000000000000000000000000000000000000000000000000815260040161057190611279565b60405180910390fd5b60016009600086815260200190815260200160002060006101000a81548160ff02191690831515021790555060016003600087815260200190815260200160002060008282546105ca9190611381565b925050819055506001600760008282546105e49190611381565b9250508190555060085460075411156105fc57600080fd5b7f33952ef907843fd2ddd118a92dd935debf65b72965a557a364ea08deffca032f848660405161062d9291906112b4565b60405180910390a1600073ffffffffffffffffffffffffffffffffffffffff16600660009054906101000a900473ffffffffffffffffffffffffffffffffffffffff1673ffffffffffffffffffffffffffffffffffffffff1614156106e957600154600a60003373ffffffffffffffffffffffffffffffffffffffff1673ffffffffffffffffffffffffffffffffffffffff16815260200190815260200160002060008282546106dd9190611381565b9250508190555061079c565b600560009054906101000a900473ffffffffffffffffffffffffffffffffffffffff1673ffffffffffffffffffffffffffffffffffffffff1663a9059cbb336001546040518363ffffffff1660e01b8152600401610748929190611129565b602060405180830381600087803b15801561076257600080fd5b505af1158015610776573d6000803e3d6000fd5b505050506040513d601f19601f8201168201806040525081019061079a9190610cf3565b505b5050505050565b60015481565b60008054906101000a900473ffffffffffffffffffffffffffffffffffffffff1673ffffffffffffffffffffffffffffffffffffffff163373ffffffffffffffffffffffffffffffffffffffff1614610837576040517f08c379a000000000000000000000000000000000000000000000000000000000815260040161082e90611259565b60405180910390fd5b600b5442101561087c576040517f08c379a000000000000000000000000000000000000000000000000000000000815260040161087390611239565b60405180910390fd5b600073ffffffffffffffffffffffffffffffffffffffff16600660009054906101000a900473ffffffffffffffffffffffffffffffffffffffff1673ffffffffffffffffffffffffffffffffffffffff1614610b2657600080600660009054906101000a900473ffffffffffffffffffffffffffffffffffffffff1673ffffffffffffffffffffffffffffffffffffffff1660008054906101000a900473ffffffffffffffffffffffffffffffffffffffff16600560009054906101000a900473ffffffffffffffffffffffffffffffffffffffff1673ffffffffffffffffffffffffffffffffffffffff166370a08231306040518263ffffffff1660e01b815260040161098a91906110bd565b60206040518083038186803b1580156109a257600080fd5b505afa1580156109b6573d6000803e3d6000fd5b505050506040513d601f19601f820116820180604052508101906109da9190610d45565b6040516024016109eb929190611129565b6040516020818303038152906040527fa9059cbb000000000000000000000000000000000000000000000000000000007bffffffffffffffffffffffffffffffffffffffffffffffffffffffff19166020820180517bffffffffffffffffffffffffffffffffffffffffffffffffffffffff8381831617835250505050604051610a759190611080565b6000604051808303816000865af19150503d8060008114610ab2576040519150601f19603f3d011682016040523d82523d6000602084013e610ab7565b606091505b509150915081610ac657600080fd5b7f7fd4944e0578c8917071b74444484742595fdad758585712af0e1829601d2cc2600660009054906101000a900473ffffffffffffffffffffffffffffffffffffffff168383604051610b1b939291906110d8565b60405180910390a150505b60008054906101000a900473ffffffffffffffffffffffffffffffffffffffff1673ffffffffffffffffffffffffffffffffffffffff16ff5b600081604051602001610b729190611097565b604051602081830303815290604052805190602001209050919050565b60006041825114610bd5576040517f08c379a0000000000000000000000000000000000000000000000000000000008152600401610bcc906111d9565b60405180910390fd5b60008060006020850151925060408501519150606085015160001a905060018682858560405160008152602001604052604051610c159493929190611152565b6020604051602081039080840390855afa158015610c37573d6000803e3d6000fd5b50505060206040510351935050505092915050565b6000610c5f610c5a84611302565b6112dd565b905082815260208101848484011115610c7757600080fd5b610c8284828561146a565b509392505050565b600081519050610c9981611789565b92915050565b600082601f830112610cb057600080fd5b8135610cc0848260208601610c4c565b91505092915050565b600081359050610cd8816117a0565b92915050565b600081519050610ced816117a0565b92915050565b600060208284031215610d0557600080fd5b6000610d1384828501610c8a565b91505092915050565b600060208284031215610d2e57600080fd5b6000610d3c84828501610cc9565b91505092915050565b600060208284031215610d5757600080fd5b6000610d6584828501610cde565b91505092915050565b600080600060608486031215610d8357600080fd5b6000610d9186828701610cc9565b9350506020610da286828701610cc9565b925050604084013567ffffffffffffffff811115610dbf57600080fd5b610dcb86828701610c9f565b9150509250925092565b610dde8161140b565b82525050565b610df5610df08261140b565b61150f565b82525050565b610e048161141d565b82525050565b610e1381611429565b82525050565b610e2a610e2582611429565b611521565b82525050565b6000610e3b82611333565b610e458185611349565b9350610e55818560208601611479565b610e5e816115d4565b840191505092915050565b6000610e7482611333565b610e7e818561135a565b9350610e8e818560208601611479565b80840191505092915050565b6000610ea58261133e565b610eaf8185611365565b9350610ebf818560208601611479565b610ec8816115d4565b840191505092915050565b6000610ee0601883611365565b9150610eeb826115f2565b602082019050919050565b6000610f03601c83611376565b9150610f0e8261161b565b601c82019050919050565b6000610f26601e83611365565b9150610f3182611644565b602082019050919050565b6000610f49601183611365565b9150610f548261166d565b602082019050919050565b6000610f6c601383611365565b9150610f7782611696565b602082019050919050565b6000610f8f601283611365565b9150610f9a826116bf565b602082019050919050565b6000610fb2600883611365565b9150610fbd826116e8565b602082019050919050565b6000610fd5602483611365565b9150610fe082611711565b604082019050919050565b6000610ff8601e83611365565b915061100382611760565b602082019050919050565b61101781611453565b82525050565b61102e61102982611453565b61153d565b82525050565b61103d8161145d565b82525050565b600061104f8286610de4565b60148201915061105f828561101d565b60208201915061106f828461101d565b602082019150819050949350505050565b600061108c8284610e69565b915081905092915050565b60006110a282610ef6565b91506110ae8284610e19565b60208201915081905092915050565b60006020820190506110d26000830184610dd5565b92915050565b60006080820190506110ed6000830186610dd5565b81810360208301526110fe81610fa5565b905061110d6040830185610dfb565b818103606083015261111f8184610e30565b9050949350505050565b600060408201905061113e6000830185610dd5565b61114b602083018461100e565b9392505050565b60006080820190506111676000830187610e0a565b6111746020830186611034565b6111816040830185610e0a565b61118e6060830184610e0a565b95945050505050565b600060208201905081810360008301526111b18184610e9a565b905092915050565b600060208201905081810360008301526111d281610ed3565b9050919050565b600060208201905081810360008301526111f281610f19565b9050919050565b6000602082019050818103600083015261121281610f3c565b9050919050565b6000602082019050818103600083015261123281610f5f565b9050919050565b6000602082019050818103600083015261125281610f82565b9050919050565b6000602082019050818103600083015261127281610fc8565b9050919050565b6000602082019050818103600083015261129281610feb565b9050919050565b60006020820190506112ae600083018461100e565b92915050565b60006040820190506112c9600083018561100e565b6112d6602083018461100e565b9392505050565b60006112e76112f8565b90506112f382826114de565b919050565b6000604051905090565b600067ffffffffffffffff82111561131d5761131c6115a5565b5b611326826115d4565b9050602081019050919050565b600081519050919050565b600081519050919050565b600082825260208201905092915050565b600081905092915050565b600082825260208201905092915050565b600081905092915050565b600061138c82611453565b915061139783611453565b9250827fffffffffffffffffffffffffffffffffffffffffffffffffffffffffffffffff038211156113cc576113cb611547565b5b828201905092915050565b60006113e282611453565b91506113ed83611453565b925082821015611400576113ff611547565b5b828203905092915050565b600061141682611433565b9050919050565b60008115159050919050565b6000819050919050565b600073ffffffffffffffffffffffffffffffffffffffff82169050919050565b6000819050919050565b600060ff82169050919050565b82818337600083830152505050565b60005b8381101561149757808201518184015260208101905061147c565b838111156114a6576000848401525b50505050565b600060028204905060018216806114c457607f821691505b602082108114156114d8576114d7611576565b5b50919050565b6114e7826115d4565b810181811067ffffffffffffffff82111715611506576115056115a5565b5b80604052505050565b600061151a8261152b565b9050919050565b6000819050919050565b6000611536826115e5565b9050919050565b6000819050919050565b7f4e487b7100000000000000000000000000000000000000000000000000000000600052601160045260246000fd5b7f4e487b7100000000000000000000000000000000000000000000000000000000600052602260045260246000fd5b7f4e487b7100000000000000000000000000000000000000000000000000000000600052604160045260246000fd5b6000601f19601f8301169050919050565b60008160601b9050919050565b7f54686520766f74696e6720656e64656420616c72656164790000000000000000600082015250565b7f19457468657265756d205369676e6564204d6573736167653a0a333200000000600082015250565b7f5369676e61747572652068617320696e636f7272656374206c656e6774680000600082015250565b7f496e76616c6964207369676e6174757265000000000000000000000000000000600082015250565b7f5072697a65206973206e6f7420696e2045544800000000000000000000000000600082015250565b7f54696d65206973206e6f74207570207965740000000000000000000000000000600082015250565b7f7472616e73666572000000000000000000000000000000000000000000000000600082015250565b7f4f6e6c7920746865206f7267616e697a65722063616e20656e6420746865206560008201527f76656e7400000000000000000000000000000000000000000000000000000000602082015250565b7f5468697320766f746520697320616c72656164792066696e616c697a65640000600082015250565b6117928161141d565b811461179d57600080fd5b50565b6117a981611453565b81146117b457600080fd5b5056fea2646970667358221220567a384d1aab6826f4960ab95138763c10da60385d463fc271288366ee0105f964736f6c63430008040033",
  "immutableReferences": {},
  "source": "// SPDX-License-Identifier: MIT\npragma solidity ^0.8.0;\n\nimport \"@openzeppelin/contracts/token/ERC20/IERC20.sol\";\n\n\ncontract VotingEvent {\n  address owner;\n  uint256 public prize;\n  string[] public candidates;\n  mapping(uint => uint) public voteCount;\n  mapping(uint => uint) private votes;\n  IERC20 token;\n  address tokenAddress;\n  uint totalVoteCount;\n  uint numberVoters;\n  mapping(uint => bool) usedVote;\n  mapping(address => uint256) earnedBalance;\n  uint endTime;\n  bool allowChange;\n\n  event Vote(uint nonce, uint choice);\n\n  event ExternalCall(address targetAddress, string functionName, bool success, bytes result);\n\n  constructor(string[] memory _candidates, address _token, uint _prize, uint _numberVoters, uint _endTime, bool _allowChange) payable {\n    owner = msg.sender;\n    candidates = _candidates;\n    tokenAddress = _token;\n    if (_token == address(0)) {\n      require(msg.value == (_prize * _numberVoters));\n    } else {\n      // TODO: Check if the given token address is ERC20 compliant\n\n      token = IERC20(_token);\n      token.transferFrom(msg.sender, address(this), _prize);\n    }\n    prize = _prize;\n    endTime = _endTime;\n    allowChange = _allowChange;\n  }\n\n  function vote(uint choice, uint nonce, bytes memory signautre) external {\n    require(block.timestamp < endTime, 'The voting ended already');\n    bytes32 message = prefixed(keccak256(abi.encodePacked(msg.sender, nonce, numberVoters)));\n    address signer = recoverSigner(message, signautre);\n    require(signer == owner, \"Invalid signature\");\n    if (allowChange && usedVote[nonce]) {\n      voteCount[votes[nonce]] -= 1;\n      usedVote[nonce] = false;\n      totalVoteCount -= 1;\n    }\n    require(!usedVote[nonce], 'This vote is already finalized');\n    usedVote[nonce] = true;\n    voteCount[choice] += 1;\n    totalVoteCount += 1;\n    require(totalVoteCount <= numberVoters);\n\n    emit Vote(nonce, choice);\n\n    // Send prize to voter\n    if (tokenAddress == address(0)) {\n      earnedBalance[msg.sender] += prize;\n    } else {\n      token.transfer(msg.sender, prize);\n    }\n  }\n\n  function end() external {\n    require(msg.sender == owner, \"Only the organizer can end the event\");\n    require(block.timestamp >= endTime, \"Time is not up yet\");\n    if (tokenAddress != address(0)){\n      (bool success, bytes memory result) = tokenAddress.call(abi.encodeWithSignature(\"transfer(address,uint256)\", owner, token.balanceOf(address(this))));\n      require(success);\n      emit ExternalCall(tokenAddress, \"transfer\", success, result);\n    }\n    selfdestruct(payable(owner));\n  }\n\n  function withdraw() external {\n    require(tokenAddress == address(0), 'Prize is not in ETH');\n    uint256 reward = earnedBalance[msg.sender];\n    earnedBalance[msg.sender] = 0;\n    payable(msg.sender).transfer(reward);\n  }\n\n  // Builds a prefixed hash to mimic the behavior of eth_sign.\n  function prefixed(bytes32 hash) internal pure returns (bytes32) {\n    return keccak256(abi.encodePacked(\"\\x19Ethereum Signed Message:\\n32\", hash));\n  }\n\n  function recoverSigner(bytes32 hash, bytes memory sig) internal pure returns (address) {\n    require(sig.length == 65, \"Signature has incorrect length\");\n\n    bytes32 r;\n    bytes32 s;\n    uint8 v;\n\n    // Divide the signature in r, s and v with inline assembly\n    assembly {\n    // first 32 bytes, after the length prefix\n      r := mload(add(sig, 32))\n    // second 32 bytes\n      s := mload(add(sig, 64))\n    // final byte (first byte of the next 32 bytes)\n      v := byte(0, mload(add(sig, 96)))\n    }\n\n    return ecrecover(hash, v, r, s);\n  }\n}\n",
  "sourcePath": "/home/dryan/college/capstone_project/smart_contract/contracts/VotingEvent.sol",
  "compiler": {
    "name": "solc",
    "version": "0.8.4+commit.c7e474f2.Emscripten.clang"
  },
  "schemaVersion": "3.4.2",
  "updatedAt": "2021-08-09T20:47:58.530Z",
  "devdoc": {
    "kind": "dev",
    "methods": {},
    "version": 1
  },
  "userdoc": {
    "kind": "user",
    "methods": {},
    "version": 1
  }
}