{
  "contractName": "VotingEvent",
  "abi": [
    {
      "inputs": [
        {
          "internalType": "address",
          "name": "_token",
          "type": "address"
        },
        {
          "internalType": "uint256",
          "name": "_prize",
          "type": "uint256"
        },
        {
          "internalType": "uint256",
          "name": "_numberVotes",
          "type": "uint256"
        },
        {
          "internalType": "bool",
          "name": "_allowChange",
          "type": "bool"
        }
      ],
      "stateMutability": "payable",
      "type": "constructor"
    },
    {
      "anonymous": false,
      "inputs": [
        {
          "indexed": false,
          "internalType": "address",
          "name": "targetAddress",
          "type": "address"
        },
        {
          "indexed": false,
          "internalType": "string",
          "name": "functionName",
          "type": "string"
        },
        {
          "indexed": false,
          "internalType": "bool",
          "name": "success",
          "type": "bool"
        },
        {
          "indexed": false,
          "internalType": "bytes",
          "name": "result",
          "type": "bytes"
        }
      ],
      "name": "ExternalCall",
      "type": "event"
    },
    {
      "anonymous": false,
      "inputs": [
        {
          "indexed": false,
          "internalType": "uint256",
          "name": "nonce",
          "type": "uint256"
        },
        {
          "indexed": false,
          "internalType": "string",
          "name": "choice",
          "type": "string"
        }
      ],
      "name": "Vote",
      "type": "event"
    },
    {
      "inputs": [],
      "name": "numberVotes",
      "outputs": [
        {
          "internalType": "uint256",
          "name": "",
          "type": "uint256"
        }
      ],
      "stateMutability": "view",
      "type": "function"
    },
    {
      "inputs": [],
      "name": "prize",
      "outputs": [
        {
          "internalType": "uint256",
          "name": "",
          "type": "uint256"
        }
      ],
      "stateMutability": "view",
      "type": "function"
    },
    {
      "inputs": [
        {
          "internalType": "string",
          "name": "",
          "type": "string"
        }
      ],
      "name": "voteStatus",
      "outputs": [
        {
          "internalType": "uint256",
          "name": "",
          "type": "uint256"
        }
      ],
      "stateMutability": "view",
      "type": "function"
    },
    {
      "inputs": [],
      "name": "votedCount",
      "outputs": [
        {
          "internalType": "uint256",
          "name": "",
          "type": "uint256"
        }
      ],
      "stateMutability": "view",
      "type": "function"
    },
    {
      "inputs": [
        {
          "internalType": "string",
          "name": "choice",
          "type": "string"
        },
        {
          "internalType": "uint256",
          "name": "nonce",
          "type": "uint256"
        },
        {
          "internalType": "bytes",
          "name": "signature",
          "type": "bytes"
        }
      ],
      "name": "vote",
      "outputs": [],
      "stateMutability": "nonpayable",
      "type": "function"
    },
    {
      "inputs": [],
      "name": "end",
      "outputs": [],
      "stateMutability": "nonpayable",
      "type": "function"
    },
    {
      "inputs": [],
      "name": "withdraw",
      "outputs": [],
      "stateMutability": "nonpayable",
      "type": "function"
    }
  ],
  "bytecode": "0x608060405260405162001f1038038062001f108339818101604052810190620000299190620002a9565b336000806101000a81548173ffffffffffffffffffffffffffffffffffffffff021916908373ffffffffffffffffffffffffffffffffffffffff16021790555083600560006101000a81548173ffffffffffffffffffffffffffffffffffffffff021916908373ffffffffffffffffffffffffffffffffffffffff16021790555081600781905550600073ffffffffffffffffffffffffffffffffffffffff168473ffffffffffffffffffffffffffffffffffffffff1614156200013f578183620000f59190620003fa565b341462000139576040517f08c379a00000000000000000000000000000000000000000000000000000000081526004016200013090620003c7565b60405180910390fd5b62000239565b83600460006101000a81548173ffffffffffffffffffffffffffffffffffffffff021916908373ffffffffffffffffffffffffffffffffffffffff160217905550600460009054906101000a900473ffffffffffffffffffffffffffffffffffffffff1673ffffffffffffffffffffffffffffffffffffffff166323b872dd3330866040518463ffffffff1660e01b8152600401620001e1939291906200038a565b602060405180830381600087803b158015620001fc57600080fd5b505af115801562000211573d6000803e3d6000fd5b505050506040513d601f19601f8201168201806040525081019062000237919062000315565b505b8260018190555080600a60006101000a81548160ff021916908315150217905550505050506200054b565b6000815190506200027581620004fd565b92915050565b6000815190506200028c8162000517565b92915050565b600081519050620002a38162000531565b92915050565b60008060008060808587031215620002c057600080fd5b6000620002d08782880162000264565b9450506020620002e38782880162000292565b9350506040620002f68782880162000292565b925050606062000309878288016200027b565b91505092959194509250565b6000602082840312156200032857600080fd5b600062000338848285016200027b565b91505092915050565b6200034c816200045b565b82525050565b600062000361601983620003e9565b91506200036e82620004d4565b602082019050919050565b62000384816200049b565b82525050565b6000606082019050620003a1600083018662000341565b620003b0602083018562000341565b620003bf604083018462000379565b949350505050565b60006020820190508181036000830152620003e28162000352565b9050919050565b600082825260208201905092915050565b600062000407826200049b565b915062000414836200049b565b9250817fffffffffffffffffffffffffffffffffffffffffffffffffffffffffffffffff048311821515161562000450576200044f620004a5565b5b828202905092915050565b600062000468826200047b565b9050919050565b60008115159050919050565b600073ffffffffffffffffffffffffffffffffffffffff82169050919050565b6000819050919050565b7f4e487b7100000000000000000000000000000000000000000000000000000000600052601160045260246000fd5b7f57726f6e6720616d6f756e74206f662045544820676976656e00000000000000600082015250565b62000508816200045b565b81146200051457600080fd5b50565b62000522816200046f565b81146200052e57600080fd5b50565b6200053c816200049b565b81146200054857600080fd5b50565b6119b5806200055b6000396000f3fe608060405234801561001057600080fd5b506004361061007d5760003560e01c8063b3f8eb831161005b578063b3f8eb83146100d8578063e3ac5d26146100f6578063efbe1c1c14610114578063f0232d0a1461011e5761007d565b806307556ec1146100825780633ccfd60b1461009e5780635d1f37c5146100a8575b600080fd5b61009c60048036038101906100979190610e43565b61013c565b005b6100a6610625565b005b6100c260048036038101906100bd9190610e02565b610789565b6040516100cf9190611417565b60405180910390f35b6100e06107b7565b6040516100ed9190611417565b60405180910390f35b6100fe6107bd565b60405161010b9190611417565b60405180910390f35b61011c6107c3565b005b610126610b34565b6040516101339190611417565b60405180910390f35b600061016f33846040516020016101549291906111e6565b60405160208183030381529060405280519060200120610b3a565b9050600061017d8284610b6a565b905060008054906101000a900473ffffffffffffffffffffffffffffffffffffffff1673ffffffffffffffffffffffffffffffffffffffff168173ffffffffffffffffffffffffffffffffffffffff161461020d576040517f08c379a000000000000000000000000000000000000000000000000000000000815260040161020490611377565b60405180910390fd5b600a60009054906101000a900460ff16801561024657506008600085815260200190815260200160002060009054906101000a900460ff165b1561033257600160026003600087815260200190815260200160002060405161026f9190611240565b9081526020016040518091039020600082825461028c91906115a2565b9250508190555060006008600086815260200190815260200160002060006101000a81548160ff0219169083151502179055506001600660008282546102d291906115a2565b92505081905550600154600960003373ffffffffffffffffffffffffffffffffffffffff1673ffffffffffffffffffffffffffffffffffffffff168152602001908152602001600020600082825461032a91906115a2565b925050819055505b6008600085815260200190815260200160002060009054906101000a900460ff1615610393576040517f08c379a000000000000000000000000000000000000000000000000000000000815260040161038a906113f7565b60405180910390fd5b60016008600086815260200190815260200160002060006101000a81548160ff021916908315150217905550846003600086815260200190815260200160002090805190602001906103e6929190610c27565b5060016002866040516103f99190611229565b90815260200160405180910390206000828254610416919061154c565b92505081905550600160066000828254610430919061154c565b92505081905550600754600654111561047e576040517f08c379a0000000000000000000000000000000000000000000000000000000008152600401610475906113b7565b60405180910390fd5b7f1c60e36c6b7be4ff11140e548fec010aaf139c192c401cfe7718d8fe0b348e0384866040516104af929190611432565b60405180910390a1600073ffffffffffffffffffffffffffffffffffffffff16600560009054906101000a900473ffffffffffffffffffffffffffffffffffffffff1673ffffffffffffffffffffffffffffffffffffffff16141561056b57600154600960003373ffffffffffffffffffffffffffffffffffffffff1673ffffffffffffffffffffffffffffffffffffffff168152602001908152602001600020600082825461055f919061154c565b9250508190555061061e565b600460009054906101000a900473ffffffffffffffffffffffffffffffffffffffff1673ffffffffffffffffffffffffffffffffffffffff1663a9059cbb336001546040518363ffffffff1660e01b81526004016105ca9291906112e9565b602060405180830381600087803b1580156105e457600080fd5b505af11580156105f8573d6000803e3d6000fd5b505050506040513d601f19601f8201168201806040525081019061061c9190610dd9565b505b5050505050565b600073ffffffffffffffffffffffffffffffffffffffff16600560009054906101000a900473ffffffffffffffffffffffffffffffffffffffff1673ffffffffffffffffffffffffffffffffffffffff16146106b6576040517f08c379a00000000000000000000000000000000000000000000000000000000081526004016106ad90611397565b60405180910390fd5b6000600960003373ffffffffffffffffffffffffffffffffffffffff1673ffffffffffffffffffffffffffffffffffffffff1681526020019081526020016000205490506000600960003373ffffffffffffffffffffffffffffffffffffffff1673ffffffffffffffffffffffffffffffffffffffff168152602001908152602001600020819055503373ffffffffffffffffffffffffffffffffffffffff166108fc829081150290604051600060405180830381858888f19350505050158015610785573d6000803e3d6000fd5b5050565b6002818051602081018201805184825260208301602085012081835280955050505050506000915090505481565b60075481565b60015481565b60008054906101000a900473ffffffffffffffffffffffffffffffffffffffff1673ffffffffffffffffffffffffffffffffffffffff163373ffffffffffffffffffffffffffffffffffffffff1614610851576040517f08c379a0000000000000000000000000000000000000000000000000000000008152600401610848906113d7565b60405180910390fd5b600073ffffffffffffffffffffffffffffffffffffffff16600560009054906101000a900473ffffffffffffffffffffffffffffffffffffffff1673ffffffffffffffffffffffffffffffffffffffff1614610afb57600080600560009054906101000a900473ffffffffffffffffffffffffffffffffffffffff1673ffffffffffffffffffffffffffffffffffffffff1660008054906101000a900473ffffffffffffffffffffffffffffffffffffffff16600460009054906101000a900473ffffffffffffffffffffffffffffffffffffffff1673ffffffffffffffffffffffffffffffffffffffff166370a08231306040518263ffffffff1660e01b815260040161095f919061127d565b60206040518083038186803b15801561097757600080fd5b505afa15801561098b573d6000803e3d6000fd5b505050506040513d601f19601f820116820180604052508101906109af9190610ec2565b6040516024016109c09291906112e9565b6040516020818303038152906040527fa9059cbb000000000000000000000000000000000000000000000000000000007bffffffffffffffffffffffffffffffffffffffffffffffffffffffff19166020820180517bffffffffffffffffffffffffffffffffffffffffffffffffffffffff8381831617835250505050604051610a4a9190611212565b6000604051808303816000865af19150503d8060008114610a87576040519150601f19603f3d011682016040523d82523d6000602084013e610a8c565b606091505b509150915081610a9b57600080fd5b7f7fd4944e0578c8917071b74444484742595fdad758585712af0e1829601d2cc2600560009054906101000a900473ffffffffffffffffffffffffffffffffffffffff168383604051610af093929190611298565b60405180910390a150505b60008054906101000a900473ffffffffffffffffffffffffffffffffffffffff1673ffffffffffffffffffffffffffffffffffffffff16ff5b60065481565b600081604051602001610b4d9190611257565b604051602081830303815290604052805190602001209050919050565b60006041825114610bb0576040517f08c379a0000000000000000000000000000000000000000000000000000000008152600401610ba790611357565b60405180910390fd5b60008060006020850151925060408501519150606085015160001a905060018682858560405160008152602001604052604051610bf09493929190611312565b6020604051602081039080840390855afa158015610c12573d6000803e3d6000fd5b50505060206040510351935050505092915050565b828054610c3390611677565b90600052602060002090601f016020900481019282610c555760008555610c9c565b82601f10610c6e57805160ff1916838001178555610c9c565b82800160010185558215610c9c579182015b82811115610c9b578251825591602001919060010190610c80565b5b509050610ca99190610cad565b5090565b5b80821115610cc6576000816000905550600101610cae565b5090565b6000610cdd610cd884611487565b611462565b905082815260208101848484011115610cf557600080fd5b610d00848285611635565b509392505050565b6000610d1b610d16846114b8565b611462565b905082815260208101848484011115610d3357600080fd5b610d3e848285611635565b509392505050565b600081519050610d5581611951565b92915050565b600082601f830112610d6c57600080fd5b8135610d7c848260208601610cca565b91505092915050565b600082601f830112610d9657600080fd5b8135610da6848260208601610d08565b91505092915050565b600081359050610dbe81611968565b92915050565b600081519050610dd381611968565b92915050565b600060208284031215610deb57600080fd5b6000610df984828501610d46565b91505092915050565b600060208284031215610e1457600080fd5b600082013567ffffffffffffffff811115610e2e57600080fd5b610e3a84828501610d85565b91505092915050565b600080600060608486031215610e5857600080fd5b600084013567ffffffffffffffff811115610e7257600080fd5b610e7e86828701610d85565b9350506020610e8f86828701610daf565b925050604084013567ffffffffffffffff811115610eac57600080fd5b610eb886828701610d5b565b9150509250925092565b600060208284031215610ed457600080fd5b6000610ee284828501610dc4565b91505092915050565b610ef4816115d6565b82525050565b610f0b610f06826115d6565b6116da565b82525050565b610f1a816115e8565b82525050565b610f29816115f4565b82525050565b610f40610f3b826115f4565b6116ec565b82525050565b6000610f51826114fe565b610f5b8185611514565b9350610f6b818560208601611644565b610f748161179f565b840191505092915050565b6000610f8a826114fe565b610f948185611525565b9350610fa4818560208601611644565b80840191505092915050565b6000610fbb82611509565b610fc58185611530565b9350610fd5818560208601611644565b610fde8161179f565b840191505092915050565b6000610ff482611509565b610ffe8185611541565b935061100e818560208601611644565b80840191505092915050565b6000815461102781611677565b6110318186611541565b9450600182166000811461104c576001811461105d57611090565b60ff19831686528186019350611090565b611066856114e9565b60005b8381101561108857815481890152600182019150602081019050611069565b838801955050505b50505092915050565b60006110a6601c83611541565b91506110b1826117bd565b601c82019050919050565b60006110c9601e83611530565b91506110d4826117e6565b602082019050919050565b60006110ec601183611530565b91506110f78261180f565b602082019050919050565b600061110f601383611530565b915061111a82611838565b602082019050919050565b6000611132602e83611530565b915061113d82611861565b604082019050919050565b6000611155600883611530565b9150611160826118b0565b602082019050919050565b6000611178602483611530565b9150611183826118d9565b604082019050919050565b600061119b601e83611530565b91506111a682611928565b602082019050919050565b6111ba8161161e565b82525050565b6111d16111cc8261161e565b611708565b82525050565b6111e081611628565b82525050565b60006111f28285610efa565b60148201915061120282846111c0565b6020820191508190509392505050565b600061121e8284610f7f565b915081905092915050565b60006112358284610fe9565b915081905092915050565b600061124c828461101a565b915081905092915050565b600061126282611099565b915061126e8284610f2f565b60208201915081905092915050565b60006020820190506112926000830184610eeb565b92915050565b60006080820190506112ad6000830186610eeb565b81810360208301526112be81611148565b90506112cd6040830185610f11565b81810360608301526112df8184610f46565b9050949350505050565b60006040820190506112fe6000830185610eeb565b61130b60208301846111b1565b9392505050565b60006080820190506113276000830187610f20565b61133460208301866111d7565b6113416040830185610f20565b61134e6060830184610f20565b95945050505050565b60006020820190508181036000830152611370816110bc565b9050919050565b60006020820190508181036000830152611390816110df565b9050919050565b600060208201905081810360008301526113b081611102565b9050919050565b600060208201905081810360008301526113d081611125565b9050919050565b600060208201905081810360008301526113f08161116b565b9050919050565b600060208201905081810360008301526114108161118e565b9050919050565b600060208201905061142c60008301846111b1565b92915050565b600060408201905061144760008301856111b1565b81810360208301526114598184610fb0565b90509392505050565b600061146c61147d565b905061147882826116a9565b919050565b6000604051905090565b600067ffffffffffffffff8211156114a2576114a1611770565b5b6114ab8261179f565b9050602081019050919050565b600067ffffffffffffffff8211156114d3576114d2611770565b5b6114dc8261179f565b9050602081019050919050565b60008190508160005260206000209050919050565b600081519050919050565b600081519050919050565b600082825260208201905092915050565b600081905092915050565b600082825260208201905092915050565b600081905092915050565b60006115578261161e565b91506115628361161e565b9250827fffffffffffffffffffffffffffffffffffffffffffffffffffffffffffffffff0382111561159757611596611712565b5b828201905092915050565b60006115ad8261161e565b91506115b88361161e565b9250828210156115cb576115ca611712565b5b828203905092915050565b60006115e1826115fe565b9050919050565b60008115159050919050565b6000819050919050565b600073ffffffffffffffffffffffffffffffffffffffff82169050919050565b6000819050919050565b600060ff82169050919050565b82818337600083830152505050565b60005b83811015611662578082015181840152602081019050611647565b83811115611671576000848401525b50505050565b6000600282049050600182168061168f57607f821691505b602082108114156116a3576116a2611741565b5b50919050565b6116b28261179f565b810181811067ffffffffffffffff821117156116d1576116d0611770565b5b80604052505050565b60006116e5826116f6565b9050919050565b6000819050919050565b6000611701826117b0565b9050919050565b6000819050919050565b7f4e487b7100000000000000000000000000000000000000000000000000000000600052601160045260246000fd5b7f4e487b7100000000000000000000000000000000000000000000000000000000600052602260045260246000fd5b7f4e487b7100000000000000000000000000000000000000000000000000000000600052604160045260246000fd5b6000601f19601f8301169050919050565b60008160601b9050919050565b7f19457468657265756d205369676e6564204d6573736167653a0a333200000000600082015250565b7f5369676e61747572652068617320696e636f7272656374206c656e6774680000600082015250565b7f496e76616c6964207369676e6174757265000000000000000000000000000000600082015250565b7f5072697a65206973206e6f7420696e2045544800000000000000000000000000600082015250565b7f53686f756c64206e6f742068617665206d6f726520766f74652074686174206e60008201527f756d626572206f6620766f746573000000000000000000000000000000000000602082015250565b7f7472616e73666572000000000000000000000000000000000000000000000000600082015250565b7f4f6e6c7920746865206f7267616e697a65722063616e20656e6420746865206560008201527f76656e7400000000000000000000000000000000000000000000000000000000602082015250565b7f5468697320766f746520697320616c72656164792066696e616c697a65640000600082015250565b61195a816115e8565b811461196557600080fd5b50565b6119718161161e565b811461197c57600080fd5b5056fea2646970667358221220af8ffd7d8ce426ed15684446e531132ec77edece9b9a744efa2fc449b2682eb664736f6c63430008040033",
  "immutableReferences": {},
  "source": "// SPDX-License-Identifier: MIT\npragma solidity ^0.8.0;\n\nimport \"@openzeppelin/contracts/token/ERC20/IERC20.sol\";\n\n\ncontract VotingEvent {\n  address owner;\n  uint256 public prize;\n  mapping(string => uint) public voteStatus;\n  mapping(uint => string) private votes;\n  IERC20 token;\n  address tokenAddress;\n  uint public votedCount;\n  uint public numberVotes;\n  mapping(uint => bool) usedVote;\n  mapping(address => uint256) earnedBalance;\n  bool allowChange;\n\n  event Vote(uint nonce, string choice);\n\n  event ExternalCall(address targetAddress, string functionName, bool success, bytes result);\n\n  constructor(address _token, uint _prize, uint _numberVotes, bool _allowChange) payable {\n    owner = msg.sender;\n    tokenAddress = _token;\n    numberVotes = _numberVotes;\n    if (_token == address(0)) {\n      require(msg.value == (_prize * _numberVotes), 'Wrong amount of ETH given');\n    } else {\n      // TODO: Check if the given token address is ERC20 compliant\n\n      token = IERC20(_token);\n      token.transferFrom(msg.sender, address(this), _prize);\n    }\n    prize = _prize;\n    allowChange = _allowChange;\n  }\n\n  function vote(string memory choice, uint nonce, bytes memory signature) external {\n    bytes32 message = prefixed(keccak256(abi.encodePacked(msg.sender, nonce)));\n    address signer = recoverSigner(message, signature);\n    require(signer == owner, \"Invalid signature\");\n    if (allowChange && usedVote[nonce]) {\n      voteStatus[votes[nonce]] -= 1;\n      usedVote[nonce] = false;\n      votedCount -= 1;\n      earnedBalance[msg.sender] -= prize;\n    }\n    require(!usedVote[nonce], 'This vote is already finalized');\n    usedVote[nonce] = true;\n    votes[nonce] = choice;\n    voteStatus[choice] += 1;\n    votedCount += 1;\n    require(votedCount <= numberVotes, \"Should not have more vote that number of votes\");\n\n    emit Vote(nonce, choice);\n\n    // Send prize to voter\n    if (tokenAddress == address(0)) {\n      earnedBalance[msg.sender] += prize;\n    } else {\n      token.transfer(msg.sender, prize);\n    }\n  }\n\n  function end() external {\n    require(msg.sender == owner, \"Only the organizer can end the event\");\n    if (tokenAddress != address(0)){\n      (bool success, bytes memory result) = tokenAddress.call(abi.encodeWithSignature(\"transfer(address,uint256)\", owner, token.balanceOf(address(this))));\n      require(success);\n      emit ExternalCall(tokenAddress, \"transfer\", success, result);\n    }\n    selfdestruct(payable(owner));\n  }\n\n  function withdraw() external {\n    require(tokenAddress == address(0), 'Prize is not in ETH');\n    uint256 reward = earnedBalance[msg.sender];\n    earnedBalance[msg.sender] = 0;\n    payable(msg.sender).transfer(reward);\n  }\n\n  // Builds a prefixed hash to mimic the behavior of eth_sign.\n  function prefixed(bytes32 hash) internal pure returns (bytes32) {\n    return keccak256(abi.encodePacked(\"\\x19Ethereum Signed Message:\\n32\", hash));\n  }\n\n  function recoverSigner(bytes32 hash, bytes memory sig) internal pure returns (address) {\n    require(sig.length == 65, \"Signature has incorrect length\");\n\n    bytes32 r;\n    bytes32 s;\n    uint8 v;\n\n    // Divide the signature in r, s and v with inline assembly\n    assembly {\n    // first 32 bytes, after the length prefix\n      r := mload(add(sig, 32))\n    // second 32 bytes\n      s := mload(add(sig, 64))\n    // final byte (first byte of the next 32 bytes)\n      v := byte(0, mload(add(sig, 96)))\n    }\n\n    return ecrecover(hash, v, r, s);\n  }\n}\n",
  "sourcePath": "/home/dryan/college/capstone_project/smart_contract/contracts/VotingEvent.sol",
  "compiler": {
    "name": "solc",
    "version": "0.8.4+commit.c7e474f2.Emscripten.clang"
  },
  "schemaVersion": "3.4.2",
  "updatedAt": "2021-08-15T13:16:48.084Z",
  "devdoc": {
    "kind": "dev",
    "methods": {},
    "version": 1
  },
  "userdoc": {
    "kind": "user",
    "methods": {},
    "version": 1
  }
}